{
  "contractName": "TurboRunners",
  "abi": [
    {
      "inputs": [
        {
          "internalType": "uint256",
          "name": "_mintRate",
          "type": "uint256"
        },
        {
          "internalType": "uint256",
          "name": "_maxSupply",
          "type": "uint256"
        },
        {
          "internalType": "uint256",
          "name": "_maxMints",
          "type": "uint256"
        },
        {
          "internalType": "uint256",
          "name": "_maxMintsPerTransaction",
          "type": "uint256"
        },
        {
          "internalType": "uint256",
          "name": "_allowPublicMintingOn",
          "type": "uint256"
        },
        {
          "internalType": "uint256",
          "name": "_allowWhitelistMintingOn",
          "type": "uint256"
        },
        {
          "internalType": "bytes32",
          "name": "_root",
          "type": "bytes32"
        },
        {
          "internalType": "uint256",
          "name": "_revealDate",
          "type": "uint256"
        },
        {
          "internalType": "string",
          "name": "_initBaseURI",
          "type": "string"
        },
        {
          "internalType": "string",
          "name": "_initNotRevealedURI",
          "type": "string"
        },
        {
          "internalType": "address",
          "name": "_artist",
          "type": "address"
        }
      ],
      "stateMutability": "nonpayable",
      "type": "constructor"
    },
    {
      "inputs": [],
      "name": "ApprovalCallerNotOwnerNorApproved",
      "type": "error"
    },
    {
      "inputs": [],
      "name": "ApprovalQueryForNonexistentToken",
      "type": "error"
    },
    {
      "inputs": [],
      "name": "ApprovalToCurrentOwner",
      "type": "error"
    },
    {
      "inputs": [],
      "name": "ApproveToCaller",
      "type": "error"
    },
    {
      "inputs": [],
      "name": "BalanceQueryForZeroAddress",
      "type": "error"
    },
    {
      "inputs": [],
      "name": "MintToZeroAddress",
      "type": "error"
    },
    {
      "inputs": [],
      "name": "MintZeroQuantity",
      "type": "error"
    },
    {
      "inputs": [],
      "name": "MintedQueryForZeroAddress",
      "type": "error"
    },
    {
      "inputs": [],
      "name": "OwnerIndexOutOfBounds",
      "type": "error"
    },
    {
      "inputs": [],
      "name": "OwnerQueryForNonexistentToken",
      "type": "error"
    },
    {
      "inputs": [],
      "name": "TokenIndexOutOfBounds",
      "type": "error"
    },
    {
      "inputs": [],
      "name": "TransferCallerNotOwnerNorApproved",
      "type": "error"
    },
    {
      "inputs": [],
      "name": "TransferFromIncorrectOwner",
      "type": "error"
    },
    {
      "inputs": [],
      "name": "TransferToNonERC721ReceiverImplementer",
      "type": "error"
    },
    {
      "inputs": [],
      "name": "TransferToZeroAddress",
      "type": "error"
    },
    {
      "inputs": [],
      "name": "URIQueryForNonexistentToken",
      "type": "error"
    },
    {
      "anonymous": false,
      "inputs": [
        {
          "indexed": true,
          "internalType": "address",
          "name": "owner",
          "type": "address"
        },
        {
          "indexed": true,
          "internalType": "address",
          "name": "approved",
          "type": "address"
        },
        {
          "indexed": true,
          "internalType": "uint256",
          "name": "tokenId",
          "type": "uint256"
        }
      ],
      "name": "Approval",
      "type": "event"
    },
    {
      "anonymous": false,
      "inputs": [
        {
          "indexed": true,
          "internalType": "address",
          "name": "owner",
          "type": "address"
        },
        {
          "indexed": true,
          "internalType": "address",
          "name": "operator",
          "type": "address"
        },
        {
          "indexed": false,
          "internalType": "bool",
          "name": "approved",
          "type": "bool"
        }
      ],
      "name": "ApprovalForAll",
      "type": "event"
    },
    {
      "anonymous": false,
      "inputs": [
        {
          "indexed": true,
          "internalType": "address",
          "name": "previousOwner",
          "type": "address"
        },
        {
          "indexed": true,
          "internalType": "address",
          "name": "newOwner",
          "type": "address"
        }
      ],
      "name": "OwnershipTransferred",
      "type": "event"
    },
    {
      "anonymous": false,
      "inputs": [
        {
          "indexed": true,
          "internalType": "address",
          "name": "from",
          "type": "address"
        },
        {
          "indexed": true,
          "internalType": "address",
          "name": "to",
          "type": "address"
        },
        {
          "indexed": true,
          "internalType": "uint256",
          "name": "tokenId",
          "type": "uint256"
        }
      ],
      "name": "Transfer",
      "type": "event"
    },
    {
      "inputs": [],
      "name": "MAX_MINTS",
      "outputs": [
        {
          "internalType": "uint256",
          "name": "",
          "type": "uint256"
        }
      ],
      "stateMutability": "view",
      "type": "function",
      "constant": true
    },
    {
      "inputs": [],
      "name": "MAX_MINT_PER_TRANSACTION",
      "outputs": [
        {
          "internalType": "uint256",
          "name": "",
          "type": "uint256"
        }
      ],
      "stateMutability": "view",
      "type": "function",
      "constant": true
    },
    {
      "inputs": [],
      "name": "MAX_SUPPLY",
      "outputs": [
        {
          "internalType": "uint256",
          "name": "",
          "type": "uint256"
        }
      ],
      "stateMutability": "view",
      "type": "function",
      "constant": true
    },
    {
      "inputs": [],
      "name": "allowPublicMintingAfter",
      "outputs": [
        {
          "internalType": "uint256",
          "name": "",
          "type": "uint256"
        }
      ],
      "stateMutability": "view",
      "type": "function",
      "constant": true
    },
    {
      "inputs": [],
      "name": "allowWhiteListMintingAfter",
      "outputs": [
        {
          "internalType": "uint256",
          "name": "",
          "type": "uint256"
        }
      ],
      "stateMutability": "view",
      "type": "function",
      "constant": true
    },
    {
      "inputs": [
        {
          "internalType": "address",
          "name": "to",
          "type": "address"
        },
        {
          "internalType": "uint256",
          "name": "tokenId",
          "type": "uint256"
        }
      ],
      "name": "approve",
      "outputs": [],
      "stateMutability": "nonpayable",
      "type": "function"
    },
    {
      "inputs": [],
      "name": "artist",
      "outputs": [
        {
          "internalType": "address",
          "name": "",
          "type": "address"
        }
      ],
      "stateMutability": "view",
      "type": "function",
      "constant": true
    },
    {
      "inputs": [
        {
          "internalType": "address",
          "name": "owner",
          "type": "address"
        }
      ],
      "name": "balanceOf",
      "outputs": [
        {
          "internalType": "uint256",
          "name": "",
          "type": "uint256"
        }
      ],
      "stateMutability": "view",
      "type": "function",
      "constant": true
    },
    {
      "inputs": [],
      "name": "baseURI",
      "outputs": [
        {
          "internalType": "string",
          "name": "",
          "type": "string"
        }
      ],
      "stateMutability": "view",
      "type": "function",
      "constant": true
    },
    {
      "inputs": [
        {
          "internalType": "uint256",
          "name": "tokenId",
          "type": "uint256"
        }
      ],
      "name": "getApproved",
      "outputs": [
        {
          "internalType": "address",
          "name": "",
          "type": "address"
        }
      ],
      "stateMutability": "view",
      "type": "function",
      "constant": true
    },
    {
      "inputs": [
        {
          "internalType": "address",
          "name": "owner",
          "type": "address"
        },
        {
          "internalType": "address",
          "name": "operator",
          "type": "address"
        }
      ],
      "name": "isApprovedForAll",
      "outputs": [
        {
          "internalType": "bool",
          "name": "",
          "type": "bool"
        }
      ],
      "stateMutability": "view",
      "type": "function",
      "constant": true
    },
    {
      "inputs": [],
      "name": "isPaused",
      "outputs": [
        {
          "internalType": "bool",
          "name": "",
          "type": "bool"
        }
      ],
      "stateMutability": "view",
      "type": "function",
      "constant": true
    },
    {
      "inputs": [],
      "name": "mintRate",
      "outputs": [
        {
          "internalType": "uint256",
          "name": "",
          "type": "uint256"
        }
      ],
      "stateMutability": "view",
      "type": "function",
      "constant": true
    },
    {
      "inputs": [],
      "name": "name",
      "outputs": [
        {
          "internalType": "string",
          "name": "",
          "type": "string"
        }
      ],
      "stateMutability": "view",
      "type": "function",
      "constant": true
    },
    {
      "inputs": [],
      "name": "notRevealedURI",
      "outputs": [
        {
          "internalType": "string",
          "name": "",
          "type": "string"
        }
      ],
      "stateMutability": "view",
      "type": "function",
      "constant": true
    },
    {
      "inputs": [],
      "name": "owner",
      "outputs": [
        {
          "internalType": "address",
          "name": "",
          "type": "address"
        }
      ],
      "stateMutability": "view",
      "type": "function",
      "constant": true
    },
    {
      "inputs": [
        {
          "internalType": "uint256",
          "name": "tokenId",
          "type": "uint256"
        }
      ],
      "name": "ownerOf",
      "outputs": [
        {
          "internalType": "address",
          "name": "",
          "type": "address"
        }
      ],
      "stateMutability": "view",
      "type": "function",
      "constant": true
    },
    {
      "inputs": [],
      "name": "renounceOwnership",
      "outputs": [],
      "stateMutability": "nonpayable",
      "type": "function"
    },
    {
      "inputs": [],
      "name": "revealDate",
      "outputs": [
        {
          "internalType": "uint256",
          "name": "",
          "type": "uint256"
        }
      ],
      "stateMutability": "view",
      "type": "function",
      "constant": true
    },
    {
      "inputs": [],
      "name": "root",
      "outputs": [
        {
          "internalType": "bytes32",
          "name": "",
          "type": "bytes32"
        }
      ],
      "stateMutability": "view",
      "type": "function",
      "constant": true
    },
    {
      "inputs": [
        {
          "internalType": "address",
          "name": "operator",
          "type": "address"
        },
        {
          "internalType": "bool",
          "name": "approved",
          "type": "bool"
        }
      ],
      "name": "setApprovalForAll",
      "outputs": [],
      "stateMutability": "nonpayable",
      "type": "function"
    },
    {
      "inputs": [
        {
          "internalType": "bytes4",
          "name": "interfaceId",
          "type": "bytes4"
        }
      ],
      "name": "supportsInterface",
      "outputs": [
        {
          "internalType": "bool",
          "name": "",
          "type": "bool"
        }
      ],
      "stateMutability": "view",
      "type": "function",
      "constant": true
    },
    {
      "inputs": [],
      "name": "symbol",
      "outputs": [
        {
          "internalType": "string",
          "name": "",
          "type": "string"
        }
      ],
      "stateMutability": "view",
      "type": "function",
      "constant": true
    },
    {
      "inputs": [],
      "name": "timeDeployed",
      "outputs": [
        {
          "internalType": "uint256",
          "name": "",
          "type": "uint256"
        }
      ],
      "stateMutability": "view",
      "type": "function",
      "constant": true
    },
    {
      "inputs": [
        {
          "internalType": "uint256",
          "name": "index",
          "type": "uint256"
        }
      ],
      "name": "tokenByIndex",
      "outputs": [
        {
          "internalType": "uint256",
          "name": "",
          "type": "uint256"
        }
      ],
      "stateMutability": "view",
      "type": "function",
      "constant": true
    },
    {
      "inputs": [
        {
          "internalType": "address",
          "name": "owner",
          "type": "address"
        },
        {
          "internalType": "uint256",
          "name": "index",
          "type": "uint256"
        }
      ],
      "name": "tokenOfOwnerByIndex",
      "outputs": [
        {
          "internalType": "uint256",
          "name": "",
          "type": "uint256"
        }
      ],
      "stateMutability": "view",
      "type": "function",
      "constant": true
    },
    {
      "inputs": [],
      "name": "totalSupply",
      "outputs": [
        {
          "internalType": "uint256",
          "name": "",
          "type": "uint256"
        }
      ],
      "stateMutability": "view",
      "type": "function",
      "constant": true
    },
    {
      "inputs": [
        {
          "internalType": "address",
          "name": "newOwner",
          "type": "address"
        }
      ],
      "name": "transferOwnership",
      "outputs": [],
      "stateMutability": "nonpayable",
      "type": "function"
    },
    {
      "inputs": [
        {
          "internalType": "bytes32[]",
          "name": "_proof",
          "type": "bytes32[]"
        },
        {
          "internalType": "uint256",
          "name": "quantity",
          "type": "uint256"
        }
      ],
      "name": "mint",
      "outputs": [],
      "stateMutability": "payable",
      "type": "function",
      "payable": true
    },
    {
      "inputs": [],
      "name": "withdraw",
      "outputs": [],
      "stateMutability": "payable",
      "type": "function",
      "payable": true
    },
    {
      "inputs": [
        {
          "internalType": "uint256",
          "name": "_mintRate",
          "type": "uint256"
        }
      ],
      "name": "setMintRate",
      "outputs": [],
      "stateMutability": "nonpayable",
      "type": "function"
    },
    {
      "inputs": [
        {
          "internalType": "bool",
          "name": "_isPaused",
          "type": "bool"
        }
      ],
      "name": "setIsPaused",
      "outputs": [],
      "stateMutability": "nonpayable",
      "type": "function"
    },
    {
      "inputs": [
        {
          "internalType": "address",
          "name": "from",
          "type": "address"
        },
        {
          "internalType": "address",
          "name": "to",
          "type": "address"
        },
        {
          "internalType": "uint256",
          "name": "tokenId",
          "type": "uint256"
        }
      ],
      "name": "transferFrom",
      "outputs": [],
      "stateMutability": "payable",
      "type": "function",
      "payable": true
    },
    {
      "inputs": [
        {
          "internalType": "address",
          "name": "from",
          "type": "address"
        },
        {
          "internalType": "address",
          "name": "to",
          "type": "address"
        },
        {
          "internalType": "uint256",
          "name": "tokenId",
          "type": "uint256"
        }
      ],
      "name": "safeTransferFrom",
      "outputs": [],
      "stateMutability": "payable",
      "type": "function",
      "payable": true
    },
    {
      "inputs": [
        {
          "internalType": "address",
          "name": "from",
          "type": "address"
        },
        {
          "internalType": "address",
          "name": "to",
          "type": "address"
        },
        {
          "internalType": "uint256",
          "name": "tokenId",
          "type": "uint256"
        },
        {
          "internalType": "bytes",
          "name": "_data",
          "type": "bytes"
        }
      ],
      "name": "safeTransferFrom",
      "outputs": [],
      "stateMutability": "payable",
      "type": "function",
      "payable": true
    },
    {
      "inputs": [
        {
          "internalType": "uint256",
          "name": "tokenId",
          "type": "uint256"
        }
      ],
      "name": "tokenURI",
      "outputs": [
        {
          "internalType": "string",
          "name": "",
          "type": "string"
        }
      ],
      "stateMutability": "view",
      "type": "function",
      "constant": true
    },
    {
      "inputs": [
        {
          "internalType": "bytes32[]",
          "name": "proof",
          "type": "bytes32[]"
        },
        {
          "internalType": "bytes32",
          "name": "leaf",
          "type": "bytes32"
        }
      ],
      "name": "isValid",
      "outputs": [
        {
          "internalType": "bool",
          "name": "",
          "type": "bool"
        }
      ],
      "stateMutability": "view",
      "type": "function",
      "constant": true
    },
    {
      "inputs": [
        {
          "internalType": "bytes32",
          "name": "_root",
          "type": "bytes32"
        }
      ],
      "name": "setRoot",
      "outputs": [],
      "stateMutability": "nonpayable",
      "type": "function"
    }
  ],
  "bytecode": "0x60806040526000600d556000600e5560006010556000601160006101000a81548160ff02191690831515021790555060056015553480156200004057600080fd5b5060405162004d7b38038062004d7b833981810160405281019062000066919062000624565b6040518060400160405280600d81526020017f547572626f2052756e6e657273000000000000000000000000000000000000008152506040518060400160405280600581526020017f5442524e520000000000000000000000000000000000000000000000000000008152508160019080519060200190620000ea929190620002fc565b50806002908051906020019062000103929190620002fc565b505050620001266200011a6200022e60201b60201c565b6200023660201b60201c565b42871115620001445742876200013d91906200079e565b600d819055505b42841115620001625742846200015b91906200079e565b6010819055505b42861115620001805742866200017991906200079e565b600e819055505b8a600b8190555089600a8190555088600881905550876009819055508260139080519060200190620001b4929190620002fc565b508160129080519060200190620001cd929190620002fc565b5084600f8190555080601460006101000a81548173ffffffffffffffffffffffffffffffffffffffff021916908373ffffffffffffffffffffffffffffffffffffffff16021790555042600c8190555050505050505050505050506200083e565b600033905090565b6000600760009054906101000a900473ffffffffffffffffffffffffffffffffffffffff16905081600760006101000a81548173ffffffffffffffffffffffffffffffffffffffff021916908373ffffffffffffffffffffffffffffffffffffffff1602179055508173ffffffffffffffffffffffffffffffffffffffff168173ffffffffffffffffffffffffffffffffffffffff167f8be0079c531659141344cd1fd0a4f28419497f9722a3daafe3b4186f6b6457e060405160405180910390a35050565b8280546200030a9062000808565b90600052602060002090601f0160209004810192826200032e57600085556200037a565b82601f106200034957805160ff19168380011785556200037a565b828001600101855582156200037a579182015b82811115620003795782518255916020019190600101906200035c565b5b5090506200038991906200038d565b5090565b5b80821115620003a85760008160009055506001016200038e565b5090565b6000604051905090565b600080fd5b600080fd5b6000819050919050565b620003d581620003c0565b8114620003e157600080fd5b50565b600081519050620003f581620003ca565b92915050565b6000819050919050565b6200041081620003fb565b81146200041c57600080fd5b50565b600081519050620004308162000405565b92915050565b600080fd5b600080fd5b6000601f19601f8301169050919050565b7f4e487b7100000000000000000000000000000000000000000000000000000000600052604160045260246000fd5b6200048b8262000440565b810181811067ffffffffffffffff82111715620004ad57620004ac62000451565b5b80604052505050565b6000620004c2620003ac565b9050620004d0828262000480565b919050565b600067ffffffffffffffff821115620004f357620004f262000451565b5b620004fe8262000440565b9050602081019050919050565b60005b838110156200052b5780820151818401526020810190506200050e565b838111156200053b576000848401525b50505050565b6000620005586200055284620004d5565b620004b6565b9050828152602081018484840111156200057757620005766200043b565b5b620005848482856200050b565b509392505050565b600082601f830112620005a457620005a362000436565b5b8151620005b684826020860162000541565b91505092915050565b600073ffffffffffffffffffffffffffffffffffffffff82169050919050565b6000620005ec82620005bf565b9050919050565b620005fe81620005df565b81146200060a57600080fd5b50565b6000815190506200061e81620005f3565b92915050565b60008060008060008060008060008060006101608c8e0312156200064d576200064c620003b6565b5b60006200065d8e828f01620003e4565b9b50506020620006708e828f01620003e4565b9a50506040620006838e828f01620003e4565b9950506060620006968e828f01620003e4565b9850506080620006a98e828f01620003e4565b97505060a0620006bc8e828f01620003e4565b96505060c0620006cf8e828f016200041f565b95505060e0620006e28e828f01620003e4565b9450506101008c015167ffffffffffffffff811115620007075762000706620003bb565b5b620007158e828f016200058c565b9350506101208c015167ffffffffffffffff8111156200073a5762000739620003bb565b5b620007488e828f016200058c565b9250506101406200075c8e828f016200060d565b9150509295989b509295989b9093969950565b7f4e487b7100000000000000000000000000000000000000000000000000000000600052601160045260246000fd5b6000620007ab82620003c0565b9150620007b883620003c0565b925082821015620007ce57620007cd6200076f565b5b828203905092915050565b7f4e487b7100000000000000000000000000000000000000000000000000000000600052602260045260246000fd5b600060028204905060018216806200082157607f821691505b60208210811415620008385762000837620007d9565b5b50919050565b61452d806200084e6000396000f3fe6080604052600436106102255760003560e01c80636c0360eb11610123578063b88d4fde116100ab578063dab5f3401161006f578063dab5f340146107ce578063dbe2193f146107f7578063e985e9c514610820578063ebf0c7171461085d578063f2fde38b1461088857610225565b8063b88d4fde146106e2578063b8a20ed0146106fe578063c87b56dd1461073b578063ca0dcf1614610778578063cce132d1146107a357610225565b806376d915c3116100f257806376d915c31461060d5780638da5cb5b1461063857806395d89b4114610663578063a22cb4651461068e578063b187bd26146106b757610225565b80636c0360eb1461056357806370a082311461058e578063715018a6146105cb57806372250380146105e257610225565b806324ef901e116101b157806342842e0e1161017557806342842e0e1461048657806343bc1612146104a257806345de0d9b146104cd5780634f6ccce7146104e95780636352211e1461052657610225565b806324ef901e146103be5780632f745c59146103e957806332cb6b0c1461042657806337f6239b146104515780633ccfd60b1461047c57610225565b806318160ddd116101f857806318160ddd146102f857806319188c35146103235780631e08a9e41461034e57806323b872dd14610379578063240976bf1461039557610225565b806301ffc9a71461022a57806306fdde0314610267578063081812fc14610292578063095ea7b3146102cf575b600080fd5b34801561023657600080fd5b50610251600480360381019061024c91906134bf565b6108b1565b60405161025e9190613507565b60405180910390f35b34801561027357600080fd5b5061027c6109fb565b60405161028991906135bb565b60405180910390f35b34801561029e57600080fd5b506102b960048036038101906102b49190613613565b610a8d565b6040516102c69190613681565b60405180910390f35b3480156102db57600080fd5b506102f660048036038101906102f191906136c8565b610b09565b005b34801561030457600080fd5b5061030d610c14565b60405161031a9190613717565b60405180910390f35b34801561032f57600080fd5b50610338610c69565b6040516103459190613717565b60405180910390f35b34801561035a57600080fd5b50610363610c6f565b6040516103709190613717565b60405180910390f35b610393600480360381019061038e9190613732565b610c75565b005b3480156103a157600080fd5b506103bc60048036038101906103b791906137b1565b610d39565b005b3480156103ca57600080fd5b506103d3610dd2565b6040516103e09190613717565b60405180910390f35b3480156103f557600080fd5b50610410600480360381019061040b91906136c8565b610dd8565b60405161041d9190613717565b60405180910390f35b34801561043257600080fd5b5061043b610fdf565b6040516104489190613717565b60405180910390f35b34801561045d57600080fd5b50610466610fe5565b6040516104739190613717565b60405180910390f35b610484610feb565b005b6104a0600480360381019061049b9190613732565b6110b7565b005b3480156104ae57600080fd5b506104b761118b565b6040516104c49190613681565b60405180910390f35b6104e760048036038101906104e2919061395c565b6111b1565b005b3480156104f557600080fd5b50610510600480360381019061050b9190613613565b6114e7565b60405161051d9190613717565b60405180910390f35b34801561053257600080fd5b5061054d60048036038101906105489190613613565b611658565b60405161055a9190613681565b60405180910390f35b34801561056f57600080fd5b5061057861166e565b60405161058591906135bb565b60405180910390f35b34801561059a57600080fd5b506105b560048036038101906105b091906139b8565b6116fc565b6040516105c29190613717565b60405180910390f35b3480156105d757600080fd5b506105e06117cc565b005b3480156105ee57600080fd5b506105f7611854565b60405161060491906135bb565b60405180910390f35b34801561061957600080fd5b506106226118e2565b60405161062f9190613717565b60405180910390f35b34801561064457600080fd5b5061064d6118e8565b60405161065a9190613681565b60405180910390f35b34801561066f57600080fd5b50610678611912565b60405161068591906135bb565b60405180910390f35b34801561069a57600080fd5b506106b560048036038101906106b091906139e5565b6119a4565b005b3480156106c357600080fd5b506106cc611b1c565b6040516106d99190613507565b60405180910390f35b6106fc60048036038101906106f79190613ada565b611b2f565b005b34801561070a57600080fd5b5061072560048036038101906107209190613b5d565b611bf5565b6040516107329190613507565b60405180910390f35b34801561074757600080fd5b50610762600480360381019061075d9190613613565b611c0c565b60405161076f91906135bb565b60405180910390f35b34801561078457600080fd5b5061078d611cc8565b60405161079a9190613717565b60405180910390f35b3480156107af57600080fd5b506107b8611cce565b6040516107c59190613717565b60405180910390f35b3480156107da57600080fd5b506107f560048036038101906107f09190613bb9565b611cd4565b005b34801561080357600080fd5b5061081e60048036038101906108199190613613565b611d5a565b005b34801561082c57600080fd5b5061084760048036038101906108429190613be6565b611de0565b6040516108549190613507565b60405180910390f35b34801561086957600080fd5b50610872611e74565b60405161087f9190613c35565b60405180910390f35b34801561089457600080fd5b506108af60048036038101906108aa91906139b8565b611e7a565b005b60007f80ac58cd000000000000000000000000000000000000000000000000000000007bffffffffffffffffffffffffffffffffffffffffffffffffffffffff1916827bffffffffffffffffffffffffffffffffffffffffffffffffffffffff1916148061097c57507f5b5e139f000000000000000000000000000000000000000000000000000000007bffffffffffffffffffffffffffffffffffffffffffffffffffffffff1916827bffffffffffffffffffffffffffffffffffffffffffffffffffffffff1916145b806109e457507f780e9d63000000000000000000000000000000000000000000000000000000007bffffffffffffffffffffffffffffffffffffffffffffffffffffffff1916827bffffffffffffffffffffffffffffffffffffffffffffffffffffffff1916145b806109f457506109f382611f72565b5b9050919050565b606060018054610a0a90613c7f565b80601f0160208091040260200160405190810160405280929190818152602001828054610a3690613c7f565b8015610a835780601f10610a5857610100808354040283529160200191610a83565b820191906000526020600020905b815481529060010190602001808311610a6657829003601f168201915b5050505050905090565b6000610a9882611fdc565b610ace576040517fcf4700e400000000000000000000000000000000000000000000000000000000815260040160405180910390fd5b6005600083815260200190815260200160002060009054906101000a900473ffffffffffffffffffffffffffffffffffffffff169050919050565b6000610b1482611658565b90508073ffffffffffffffffffffffffffffffffffffffff168373ffffffffffffffffffffffffffffffffffffffff161415610b7c576040517f943f7b8c00000000000000000000000000000000000000000000000000000000815260040160405180910390fd5b8073ffffffffffffffffffffffffffffffffffffffff16610b9b612044565b73ffffffffffffffffffffffffffffffffffffffff1614158015610bcd5750610bcb81610bc6612044565b611de0565b155b15610c04576040517fcfb3b94200000000000000000000000000000000000000000000000000000000815260040160405180910390fd5b610c0f83838361204c565b505050565b60008060109054906101000a90046fffffffffffffffffffffffffffffffff1660008054906101000a90046fffffffffffffffffffffffffffffffff16036fffffffffffffffffffffffffffffffff16905090565b600c5481565b60105481565b6000341115610d29576000606460155434610c909190613ce0565b610c9a9190613d69565b9050610ca5816120fe565b60008473ffffffffffffffffffffffffffffffffffffffff168234610cca9190613d9a565b604051610cd690613dff565b60006040518083038185875af1925050503d8060008114610d13576040519150601f19603f3d011682016040523d82523d6000602084013e610d18565b606091505b5050905080610d2657600080fd5b50505b610d3483838361219a565b505050565b610d41612044565b73ffffffffffffffffffffffffffffffffffffffff16610d5f6118e8565b73ffffffffffffffffffffffffffffffffffffffff1614610db5576040517f08c379a0000000000000000000000000000000000000000000000000000000008152600401610dac90613e60565b60405180910390fd5b80601160006101000a81548160ff02191690831515021790555050565b60095481565b6000610de3836116fc565b8210610e1b576040517f0ddac30e00000000000000000000000000000000000000000000000000000000815260040160405180910390fd5b60008060009054906101000a90046fffffffffffffffffffffffffffffffff166fffffffffffffffffffffffffffffffff16905060008060005b83811015610fd3576000600360008381526020019081526020016000206040518060600160405290816000820160009054906101000a900473ffffffffffffffffffffffffffffffffffffffff1673ffffffffffffffffffffffffffffffffffffffff1673ffffffffffffffffffffffffffffffffffffffff1681526020016000820160149054906101000a900467ffffffffffffffff1667ffffffffffffffff1667ffffffffffffffff16815260200160008201601c9054906101000a900460ff1615151515815250509050806040015115610f325750610fc6565b600073ffffffffffffffffffffffffffffffffffffffff16816000015173ffffffffffffffffffffffffffffffffffffffff1614610f7257806000015192505b8773ffffffffffffffffffffffffffffffffffffffff168373ffffffffffffffffffffffffffffffffffffffff161415610fc45786841415610fbb578195505050505050610fd9565b83806001019450505b505b8080600101915050610e55565b50600080fd5b92915050565b600a5481565b600d5481565b610ff3612044565b73ffffffffffffffffffffffffffffffffffffffff166110116118e8565b73ffffffffffffffffffffffffffffffffffffffff1614611067576040517f08c379a000000000000000000000000000000000000000000000000000000000815260040161105e90613e60565b60405180910390fd5b61106f6118e8565b73ffffffffffffffffffffffffffffffffffffffff166108fc479081150290604051600060405180830381858888f193505050501580156110b4573d6000803e3d6000fd5b50565b600034111561116b5760006064601554346110d29190613ce0565b6110dc9190613d69565b90506110e7816120fe565b60008473ffffffffffffffffffffffffffffffffffffffff16823461110c9190613d9a565b60405161111890613dff565b60006040518083038185875af1925050503d8060008114611155576040519150601f19603f3d011682016040523d82523d6000602084013e61115a565b606091505b505090508061116857600080fd5b50505b611186838383604051806020016040528060008152506121aa565b505050565b601460009054906101000a900473ffffffffffffffffffffffffffffffffffffffff1681565b600c54600e546111c19190613e80565b421015611203576040517f08c379a00000000000000000000000000000000000000000000000000000000081526004016111fa90613f22565b60405180910390fd5b600c54600d546112139190613e80565b42101561128a5761124a823360405160200161122f9190613f8a565b60405160208183030381529060405280519060200120611bf5565b611289576040517f08c379a000000000000000000000000000000000000000000000000000000000815260040161128090613ff1565b60405180910390fd5b5b601160009054906101000a900460ff16156112da576040517f08c379a00000000000000000000000000000000000000000000000000000000081526004016112d19061405d565b60405180910390fd5b6008546112e6336121fd565b826112f19190613e80565b1115611332576040517f08c379a0000000000000000000000000000000000000000000000000000000008152600401611329906140ef565b60405180910390fd5b600a548161133e610c14565b6113489190613e80565b1115611389576040517f08c379a00000000000000000000000000000000000000000000000000000000081526004016113809061415b565b60405180910390fd5b80600b546113979190613ce0565b3410156113d9576040517f08c379a00000000000000000000000000000000000000000000000000000000081526004016113d0906141c7565b60405180910390fd5b60095481111561141e576040517f08c379a000000000000000000000000000000000000000000000000000000000815260040161141590614259565b60405180910390fd5b60003411156114d95760006064601554346114399190613ce0565b6114439190613d69565b905061144e816120fe565b60006114586118e8565b73ffffffffffffffffffffffffffffffffffffffff16823461147a9190613d9a565b60405161148690613dff565b60006040518083038185875af1925050503d80600081146114c3576040519150601f19603f3d011682016040523d82523d6000602084013e6114c8565b606091505b50509050806114d657600080fd5b50505b6114e333826122cd565b5050565b60008060008054906101000a90046fffffffffffffffffffffffffffffffff166fffffffffffffffffffffffffffffffff1690506000805b82811015611620576000600360008381526020019081526020016000206040518060600160405290816000820160009054906101000a900473ffffffffffffffffffffffffffffffffffffffff1673ffffffffffffffffffffffffffffffffffffffff1673ffffffffffffffffffffffffffffffffffffffff1681526020016000820160149054906101000a900467ffffffffffffffff1667ffffffffffffffff1667ffffffffffffffff16815260200160008201601c9054906101000a900460ff1615151515815250509050806040015161161257858314156116095781945050505050611653565b82806001019350505b50808060010191505061151f565b506040517fa723001c00000000000000000000000000000000000000000000000000000000815260040160405180910390fd5b919050565b6000611663826122eb565b600001519050919050565b6013805461167b90613c7f565b80601f01602080910402602001604051908101604052809291908181526020018280546116a790613c7f565b80156116f45780601f106116c9576101008083540402835291602001916116f4565b820191906000526020600020905b8154815290600101906020018083116116d757829003601f168201915b505050505081565b60008073ffffffffffffffffffffffffffffffffffffffff168273ffffffffffffffffffffffffffffffffffffffff161415611764576040517f8f4eb60400000000000000000000000000000000000000000000000000000000815260040160405180910390fd5b600460008373ffffffffffffffffffffffffffffffffffffffff1673ffffffffffffffffffffffffffffffffffffffff16815260200190815260200160002060000160009054906101000a900467ffffffffffffffff1667ffffffffffffffff169050919050565b6117d4612044565b73ffffffffffffffffffffffffffffffffffffffff166117f26118e8565b73ffffffffffffffffffffffffffffffffffffffff1614611848576040517f08c379a000000000000000000000000000000000000000000000000000000000815260040161183f90613e60565b60405180910390fd5b6118526000612593565b565b6012805461186190613c7f565b80601f016020809104026020016040519081016040528092919081815260200182805461188d90613c7f565b80156118da5780601f106118af576101008083540402835291602001916118da565b820191906000526020600020905b8154815290600101906020018083116118bd57829003601f168201915b505050505081565b600e5481565b6000600760009054906101000a900473ffffffffffffffffffffffffffffffffffffffff16905090565b60606002805461192190613c7f565b80601f016020809104026020016040519081016040528092919081815260200182805461194d90613c7f565b801561199a5780601f1061196f5761010080835404028352916020019161199a565b820191906000526020600020905b81548152906001019060200180831161197d57829003601f168201915b5050505050905090565b6119ac612044565b73ffffffffffffffffffffffffffffffffffffffff168273ffffffffffffffffffffffffffffffffffffffff161415611a11576040517fb06307db00000000000000000000000000000000000000000000000000000000815260040160405180910390fd5b8060066000611a1e612044565b73ffffffffffffffffffffffffffffffffffffffff1673ffffffffffffffffffffffffffffffffffffffff16815260200190815260200160002060008473ffffffffffffffffffffffffffffffffffffffff1673ffffffffffffffffffffffffffffffffffffffff16815260200190815260200160002060006101000a81548160ff0219169083151502179055508173ffffffffffffffffffffffffffffffffffffffff16611acb612044565b73ffffffffffffffffffffffffffffffffffffffff167f17307eab39ab6107e8899845ad3d59bd9653f200f220920489ca2b5937696c3183604051611b109190613507565b60405180910390a35050565b601160009054906101000a900460ff1681565b6000341115611be3576000606460155434611b4a9190613ce0565b611b549190613d69565b9050611b5f816120fe565b60008573ffffffffffffffffffffffffffffffffffffffff168234611b849190613d9a565b604051611b9090613dff565b60006040518083038185875af1925050503d8060008114611bcd576040519150601f19603f3d011682016040523d82523d6000602084013e611bd2565b606091505b5050905080611be057600080fd5b50505b611bef848484846121aa565b50505050565b6000611c0483600f5484612659565b905092915050565b6060600c54601054611c1e9190613e80565b421015611cb75760128054611c3290613c7f565b80601f0160208091040260200160405190810160405280929190818152602001828054611c5e90613c7f565b8015611cab5780601f10611c8057610100808354040283529160200191611cab565b820191906000526020600020905b815481529060010190602001808311611c8e57829003601f168201915b50505050509050611cc3565b611cc082612670565b90505b919050565b600b5481565b60085481565b611cdc612044565b73ffffffffffffffffffffffffffffffffffffffff16611cfa6118e8565b73ffffffffffffffffffffffffffffffffffffffff1614611d50576040517f08c379a0000000000000000000000000000000000000000000000000000000008152600401611d4790613e60565b60405180910390fd5b80600f8190555050565b611d62612044565b73ffffffffffffffffffffffffffffffffffffffff16611d806118e8565b73ffffffffffffffffffffffffffffffffffffffff1614611dd6576040517f08c379a0000000000000000000000000000000000000000000000000000000008152600401611dcd90613e60565b60405180910390fd5b80600b8190555050565b6000600660008473ffffffffffffffffffffffffffffffffffffffff1673ffffffffffffffffffffffffffffffffffffffff16815260200190815260200160002060008373ffffffffffffffffffffffffffffffffffffffff1673ffffffffffffffffffffffffffffffffffffffff16815260200190815260200160002060009054906101000a900460ff16905092915050565b600f5481565b611e82612044565b73ffffffffffffffffffffffffffffffffffffffff16611ea06118e8565b73ffffffffffffffffffffffffffffffffffffffff1614611ef6576040517f08c379a0000000000000000000000000000000000000000000000000000000008152600401611eed90613e60565b60405180910390fd5b600073ffffffffffffffffffffffffffffffffffffffff168173ffffffffffffffffffffffffffffffffffffffff161415611f66576040517f08c379a0000000000000000000000000000000000000000000000000000000008152600401611f5d906142eb565b60405180910390fd5b611f6f81612593565b50565b60007f01ffc9a7000000000000000000000000000000000000000000000000000000007bffffffffffffffffffffffffffffffffffffffffffffffffffffffff1916827bffffffffffffffffffffffffffffffffffffffffffffffffffffffff1916149050919050565b60008060009054906101000a90046fffffffffffffffffffffffffffffffff166fffffffffffffffffffffffffffffffff168210801561203d575060036000838152602001908152602001600020600001601c9054906101000a900460ff16155b9050919050565b600033905090565b826005600084815260200190815260200160002060006101000a81548173ffffffffffffffffffffffffffffffffffffffff021916908373ffffffffffffffffffffffffffffffffffffffff160217905550818373ffffffffffffffffffffffffffffffffffffffff168273ffffffffffffffffffffffffffffffffffffffff167f8c5be1e5ebec7d5bd14f71427d1e84f3dd0314c0f7b2291e5b200ac8c7c3b92560405160405180910390a4505050565b6000601460009054906101000a900473ffffffffffffffffffffffffffffffffffffffff1673ffffffffffffffffffffffffffffffffffffffff168260405161214690613dff565b60006040518083038185875af1925050503d8060008114612183576040519150601f19603f3d011682016040523d82523d6000602084013e612188565b606091505b505090508061219657600080fd5b5050565b6121a583838361270f565b505050565b6121b584848461270f565b6121c184848484612c2c565b6121f7576040517fd1a57ed600000000000000000000000000000000000000000000000000000000815260040160405180910390fd5b50505050565b60008073ffffffffffffffffffffffffffffffffffffffff168273ffffffffffffffffffffffffffffffffffffffff161415612265576040517f35ebb31900000000000000000000000000000000000000000000000000000000815260040160405180910390fd5b600460008373ffffffffffffffffffffffffffffffffffffffff1673ffffffffffffffffffffffffffffffffffffffff16815260200190815260200160002060000160089054906101000a900467ffffffffffffffff1667ffffffffffffffff169050919050565b6122e7828260405180602001604052806000815250612dba565b5050565b6122f3613410565b600082905060008054906101000a90046fffffffffffffffffffffffffffffffff166fffffffffffffffffffffffffffffffff1681101561255c576000600360008381526020019081526020016000206040518060600160405290816000820160009054906101000a900473ffffffffffffffffffffffffffffffffffffffff1673ffffffffffffffffffffffffffffffffffffffff1673ffffffffffffffffffffffffffffffffffffffff1681526020016000820160149054906101000a900467ffffffffffffffff1667ffffffffffffffff1667ffffffffffffffff16815260200160008201601c9054906101000a900460ff1615151515815250509050806040015161255a57600073ffffffffffffffffffffffffffffffffffffffff16816000015173ffffffffffffffffffffffffffffffffffffffff161461243e57809250505061258e565b5b60011561255957818060019003925050600360008381526020019081526020016000206040518060600160405290816000820160009054906101000a900473ffffffffffffffffffffffffffffffffffffffff1673ffffffffffffffffffffffffffffffffffffffff1673ffffffffffffffffffffffffffffffffffffffff1681526020016000820160149054906101000a900467ffffffffffffffff1667ffffffffffffffff1667ffffffffffffffff16815260200160008201601c9054906101000a900460ff1615151515815250509050600073ffffffffffffffffffffffffffffffffffffffff16816000015173ffffffffffffffffffffffffffffffffffffffff161461255457809250505061258e565b61243f565b5b505b6040517fdf2d9b4200000000000000000000000000000000000000000000000000000000815260040160405180910390fd5b919050565b6000600760009054906101000a900473ffffffffffffffffffffffffffffffffffffffff16905081600760006101000a81548173ffffffffffffffffffffffffffffffffffffffff021916908373ffffffffffffffffffffffffffffffffffffffff1602179055508173ffffffffffffffffffffffffffffffffffffffff168173ffffffffffffffffffffffffffffffffffffffff167f8be0079c531659141344cd1fd0a4f28419497f9722a3daafe3b4186f6b6457e060405160405180910390a35050565b6000826126668584612dcc565b1490509392505050565b606061267b82611fdc565b6126b1576040517fa14c4b5000000000000000000000000000000000000000000000000000000000815260040160405180910390fd5b60006126bb612e41565b90506000815114156126dc5760405180602001604052806000815250612707565b806126e684612ed3565b6040516020016126f7929190614347565b6040516020818303038152906040525b915050919050565b600061271a826122eb565b90506000816000015173ffffffffffffffffffffffffffffffffffffffff16612741612044565b73ffffffffffffffffffffffffffffffffffffffff1614806127745750612773826000015161276e612044565b611de0565b5b806127b95750612782612044565b73ffffffffffffffffffffffffffffffffffffffff166127a184610a8d565b73ffffffffffffffffffffffffffffffffffffffff16145b9050806127f2576040517f59c896be00000000000000000000000000000000000000000000000000000000815260040160405180910390fd5b8473ffffffffffffffffffffffffffffffffffffffff16826000015173ffffffffffffffffffffffffffffffffffffffff161461285b576040517fa114810000000000000000000000000000000000000000000000000000000000815260040160405180910390fd5b600073ffffffffffffffffffffffffffffffffffffffff168473ffffffffffffffffffffffffffffffffffffffff1614156128c2576040517fea553b3400000000000000000000000000000000000000000000000000000000815260040160405180910390fd5b6128cf8585856001613034565b6128df600084846000015161204c565b6001600460008773ffffffffffffffffffffffffffffffffffffffff1673ffffffffffffffffffffffffffffffffffffffff16815260200190815260200160002060000160008282829054906101000a900467ffffffffffffffff160392506101000a81548167ffffffffffffffff021916908367ffffffffffffffff1602179055506001600460008673ffffffffffffffffffffffffffffffffffffffff1673ffffffffffffffffffffffffffffffffffffffff16815260200190815260200160002060000160008282829054906101000a900467ffffffffffffffff160192506101000a81548167ffffffffffffffff021916908367ffffffffffffffff160217905550836003600085815260200190815260200160002060000160006101000a81548173ffffffffffffffffffffffffffffffffffffffff021916908373ffffffffffffffffffffffffffffffffffffffff160217905550426003600085815260200190815260200160002060000160146101000a81548167ffffffffffffffff021916908367ffffffffffffffff1602179055506000600184019050600073ffffffffffffffffffffffffffffffffffffffff166003600083815260200190815260200160002060000160009054906101000a900473ffffffffffffffffffffffffffffffffffffffff1673ffffffffffffffffffffffffffffffffffffffff161415612bbc5760008054906101000a90046fffffffffffffffffffffffffffffffff166fffffffffffffffffffffffffffffffff16811015612bbb5782600001516003600083815260200190815260200160002060000160006101000a81548173ffffffffffffffffffffffffffffffffffffffff021916908373ffffffffffffffffffffffffffffffffffffffff16021790555082602001516003600083815260200190815260200160002060000160146101000a81548167ffffffffffffffff021916908367ffffffffffffffff1602179055505b5b50828473ffffffffffffffffffffffffffffffffffffffff168673ffffffffffffffffffffffffffffffffffffffff167fddf252ad1be2c89b69c2b068fc378daa952ba7f163c4a11628f55a4df523b3ef60405160405180910390a4612c25858585600161303a565b5050505050565b6000612c4d8473ffffffffffffffffffffffffffffffffffffffff16613040565b15612dad578373ffffffffffffffffffffffffffffffffffffffff1663150b7a02612c76612044565b8786866040518563ffffffff1660e01b8152600401612c9894939291906143c0565b602060405180830381600087803b158015612cb257600080fd5b505af1925050508015612ce357506040513d601f19601f82011682018060405250810190612ce09190614421565b60015b612d5d573d8060008114612d13576040519150601f19603f3d011682016040523d82523d6000602084013e612d18565b606091505b50600081511415612d55576040517fd1a57ed600000000000000000000000000000000000000000000000000000000815260040160405180910390fd5b805181602001fd5b63150b7a0260e01b7bffffffffffffffffffffffffffffffffffffffffffffffffffffffff1916817bffffffffffffffffffffffffffffffffffffffffffffffffffffffff191614915050612db2565b600190505b949350505050565b612dc78383836001613063565b505050565b60008082905060005b8451811015612e36576000858281518110612df357612df261444e565b5b60200260200101519050808311612e1557612e0e83826133f9565b9250612e22565b612e1f81846133f9565b92505b508080612e2e9061447d565b915050612dd5565b508091505092915050565b606060138054612e5090613c7f565b80601f0160208091040260200160405190810160405280929190818152602001828054612e7c90613c7f565b8015612ec95780601f10612e9e57610100808354040283529160200191612ec9565b820191906000526020600020905b815481529060010190602001808311612eac57829003601f168201915b5050505050905090565b60606000821415612f1b576040518060400160405280600181526020017f3000000000000000000000000000000000000000000000000000000000000000815250905061302f565b600082905060005b60008214612f4d578080612f369061447d565b915050600a82612f469190613d69565b9150612f23565b60008167ffffffffffffffff811115612f6957612f686137e3565b5b6040519080825280601f01601f191660200182016040528015612f9b5781602001600182028036833780820191505090505b5090505b6000851461302857600182612fb49190613d9a565b9150600a85612fc391906144c6565b6030612fcf9190613e80565b60f81b818381518110612fe557612fe461444e565b5b60200101907effffffffffffffffffffffffffffffffffffffffffffffffffffffffffffff1916908160001a905350600a856130219190613d69565b9450612f9f565b8093505050505b919050565b50505050565b50505050565b6000808273ffffffffffffffffffffffffffffffffffffffff163b119050919050565b60008060009054906101000a90046fffffffffffffffffffffffffffffffff166fffffffffffffffffffffffffffffffff169050600073ffffffffffffffffffffffffffffffffffffffff168573ffffffffffffffffffffffffffffffffffffffff1614156130fe576040517f2e07630000000000000000000000000000000000000000000000000000000000815260040160405180910390fd5b6000841415613139576040517fb562e8dd00000000000000000000000000000000000000000000000000000000815260040160405180910390fd5b6131466000868387613034565b83600460008773ffffffffffffffffffffffffffffffffffffffff1673ffffffffffffffffffffffffffffffffffffffff16815260200190815260200160002060000160008282829054906101000a900467ffffffffffffffff160192506101000a81548167ffffffffffffffff021916908367ffffffffffffffff16021790555083600460008773ffffffffffffffffffffffffffffffffffffffff1673ffffffffffffffffffffffffffffffffffffffff16815260200190815260200160002060000160088282829054906101000a900467ffffffffffffffff160192506101000a81548167ffffffffffffffff021916908367ffffffffffffffff160217905550846003600083815260200190815260200160002060000160006101000a81548173ffffffffffffffffffffffffffffffffffffffff021916908373ffffffffffffffffffffffffffffffffffffffff160217905550426003600083815260200190815260200160002060000160146101000a81548167ffffffffffffffff021916908367ffffffffffffffff160217905550600081905060005b858110156133ab57818773ffffffffffffffffffffffffffffffffffffffff16600073ffffffffffffffffffffffffffffffffffffffff167fddf252ad1be2c89b69c2b068fc378daa952ba7f163c4a11628f55a4df523b3ef60405160405180910390a483801561335f575061335d6000888488612c2c565b155b15613396576040517fd1a57ed600000000000000000000000000000000000000000000000000000000815260040160405180910390fd5b818060010192505080806001019150506132e4565b50806000806101000a8154816fffffffffffffffffffffffffffffffff02191690836fffffffffffffffffffffffffffffffff160217905550506133f2600086838761303a565b5050505050565b600082600052816020526040600020905092915050565b6040518060600160405280600073ffffffffffffffffffffffffffffffffffffffff168152602001600067ffffffffffffffff1681526020016000151581525090565b6000604051905090565b600080fd5b600080fd5b60007fffffffff0000000000000000000000000000000000000000000000000000000082169050919050565b61349c81613467565b81146134a757600080fd5b50565b6000813590506134b981613493565b92915050565b6000602082840312156134d5576134d461345d565b5b60006134e3848285016134aa565b91505092915050565b60008115159050919050565b613501816134ec565b82525050565b600060208201905061351c60008301846134f8565b92915050565b600081519050919050565b600082825260208201905092915050565b60005b8381101561355c578082015181840152602081019050613541565b8381111561356b576000848401525b50505050565b6000601f19601f8301169050919050565b600061358d82613522565b613597818561352d565b93506135a781856020860161353e565b6135b081613571565b840191505092915050565b600060208201905081810360008301526135d58184613582565b905092915050565b6000819050919050565b6135f0816135dd565b81146135fb57600080fd5b50565b60008135905061360d816135e7565b92915050565b6000602082840312156136295761362861345d565b5b6000613637848285016135fe565b91505092915050565b600073ffffffffffffffffffffffffffffffffffffffff82169050919050565b600061366b82613640565b9050919050565b61367b81613660565b82525050565b60006020820190506136966000830184613672565b92915050565b6136a581613660565b81146136b057600080fd5b50565b6000813590506136c28161369c565b92915050565b600080604083850312156136df576136de61345d565b5b60006136ed858286016136b3565b92505060206136fe858286016135fe565b9150509250929050565b613711816135dd565b82525050565b600060208201905061372c6000830184613708565b92915050565b60008060006060848603121561374b5761374a61345d565b5b6000613759868287016136b3565b935050602061376a868287016136b3565b925050604061377b868287016135fe565b9150509250925092565b61378e816134ec565b811461379957600080fd5b50565b6000813590506137ab81613785565b92915050565b6000602082840312156137c7576137c661345d565b5b60006137d58482850161379c565b91505092915050565b600080fd5b7f4e487b7100000000000000000000000000000000000000000000000000000000600052604160045260246000fd5b61381b82613571565b810181811067ffffffffffffffff8211171561383a576138396137e3565b5b80604052505050565b600061384d613453565b90506138598282613812565b919050565b600067ffffffffffffffff821115613879576138786137e3565b5b602082029050602081019050919050565b600080fd5b6000819050919050565b6138a28161388f565b81146138ad57600080fd5b50565b6000813590506138bf81613899565b92915050565b60006138d86138d38461385e565b613843565b905080838252602082019050602084028301858111156138fb576138fa61388a565b5b835b81811015613924578061391088826138b0565b8452602084019350506020810190506138fd565b5050509392505050565b600082601f830112613943576139426137de565b5b81356139538482602086016138c5565b91505092915050565b600080604083850312156139735761397261345d565b5b600083013567ffffffffffffffff81111561399157613990613462565b5b61399d8582860161392e565b92505060206139ae858286016135fe565b9150509250929050565b6000602082840312156139ce576139cd61345d565b5b60006139dc848285016136b3565b91505092915050565b600080604083850312156139fc576139fb61345d565b5b6000613a0a858286016136b3565b9250506020613a1b8582860161379c565b9150509250929050565b600080fd5b600067ffffffffffffffff821115613a4557613a446137e3565b5b613a4e82613571565b9050602081019050919050565b82818337600083830152505050565b6000613a7d613a7884613a2a565b613843565b905082815260208101848484011115613a9957613a98613a25565b5b613aa4848285613a5b565b509392505050565b600082601f830112613ac157613ac06137de565b5b8135613ad1848260208601613a6a565b91505092915050565b60008060008060808587031215613af457613af361345d565b5b6000613b02878288016136b3565b9450506020613b13878288016136b3565b9350506040613b24878288016135fe565b925050606085013567ffffffffffffffff811115613b4557613b44613462565b5b613b5187828801613aac565b91505092959194509250565b60008060408385031215613b7457613b7361345d565b5b600083013567ffffffffffffffff811115613b9257613b91613462565b5b613b9e8582860161392e565b9250506020613baf858286016138b0565b9150509250929050565b600060208284031215613bcf57613bce61345d565b5b6000613bdd848285016138b0565b91505092915050565b60008060408385031215613bfd57613bfc61345d565b5b6000613c0b858286016136b3565b9250506020613c1c858286016136b3565b9150509250929050565b613c2f8161388f565b82525050565b6000602082019050613c4a6000830184613c26565b92915050565b7f4e487b7100000000000000000000000000000000000000000000000000000000600052602260045260246000fd5b60006002820490506001821680613c9757607f821691505b60208210811415613cab57613caa613c50565b5b50919050565b7f4e487b7100000000000000000000000000000000000000000000000000000000600052601160045260246000fd5b6000613ceb826135dd565b9150613cf6836135dd565b9250817fffffffffffffffffffffffffffffffffffffffffffffffffffffffffffffffff0483118215151615613d2f57613d2e613cb1565b5b828202905092915050565b7f4e487b7100000000000000000000000000000000000000000000000000000000600052601260045260246000fd5b6000613d74826135dd565b9150613d7f836135dd565b925082613d8f57613d8e613d3a565b5b828204905092915050565b6000613da5826135dd565b9150613db0836135dd565b925082821015613dc357613dc2613cb1565b5b828203905092915050565b600081905092915050565b50565b6000613de9600083613dce565b9150613df482613dd9565b600082019050919050565b6000613e0a82613ddc565b9150819050919050565b7f4f776e61626c653a2063616c6c6572206973206e6f7420746865206f776e6572600082015250565b6000613e4a60208361352d565b9150613e5582613e14565b602082019050919050565b60006020820190508181036000830152613e7981613e3d565b9050919050565b6000613e8b826135dd565b9150613e96836135dd565b9250827fffffffffffffffffffffffffffffffffffffffffffffffffffffffffffffffff03821115613ecb57613eca613cb1565b5b828201905092915050565b7f4d696e74696e67206e6f7420616c6c6f77656420796574000000000000000000600082015250565b6000613f0c60178361352d565b9150613f1782613ed6565b602082019050919050565b60006020820190508181036000830152613f3b81613eff565b9050919050565b60008160601b9050919050565b6000613f5a82613f42565b9050919050565b6000613f6c82613f4f565b9050919050565b613f84613f7f82613660565b613f61565b82525050565b6000613f968284613f73565b60148201915081905092915050565b7f41646472657373206e6f74206f6e2057686974656c6973740000000000000000600082015250565b6000613fdb60188361352d565b9150613fe682613fa5565b602082019050919050565b6000602082019050818103600083015261400a81613fce565b9050919050565b7f4d696e74696e672069732063757272656e746c79207061757365640000000000600082015250565b6000614047601b8361352d565b915061405282614011565b602082019050919050565b600060208201905081810360008301526140768161403a565b9050919050565b7f457863656564656420746865206d6178206c696d69742070657220616464726560008201527f7373000000000000000000000000000000000000000000000000000000000000602082015250565b60006140d960228361352d565b91506140e48261407d565b604082019050919050565b60006020820190508181036000830152614108816140cc565b9050919050565b7f4e6f7420656e6f75676820746f6b656e73206c65667400000000000000000000600082015250565b600061414560168361352d565b91506141508261410f565b602082019050919050565b6000602082019050818103600083015261417481614138565b9050919050565b7f4e6f7420656e6f7567682065746865722073656e740000000000000000000000600082015250565b60006141b160158361352d565b91506141bc8261417b565b602082019050919050565b600060208201905081810360008301526141e0816141a4565b9050919050565b7f4d6178206d696e7420706572207472616e73616374696f6e206578636565646560008201527f6400000000000000000000000000000000000000000000000000000000000000602082015250565b600061424360218361352d565b915061424e826141e7565b604082019050919050565b6000602082019050818103600083015261427281614236565b9050919050565b7f4f776e61626c653a206e6577206f776e657220697320746865207a65726f206160008201527f6464726573730000000000000000000000000000000000000000000000000000602082015250565b60006142d560268361352d565b91506142e082614279565b604082019050919050565b60006020820190508181036000830152614304816142c8565b9050919050565b600081905092915050565b600061432182613522565b61432b818561430b565b935061433b81856020860161353e565b80840191505092915050565b60006143538285614316565b915061435f8284614316565b91508190509392505050565b600081519050919050565b600082825260208201905092915050565b60006143928261436b565b61439c8185614376565b93506143ac81856020860161353e565b6143b581613571565b840191505092915050565b60006080820190506143d56000830187613672565b6143e26020830186613672565b6143ef6040830185613708565b81810360608301526144018184614387565b905095945050505050565b60008151905061441b81613493565b92915050565b6000602082840312156144375761443661345d565b5b60006144458482850161440c565b91505092915050565b7f4e487b7100000000000000000000000000000000000000000000000000000000600052603260045260246000fd5b6000614488826135dd565b91507fffffffffffffffffffffffffffffffffffffffffffffffffffffffffffffffff8214156144bb576144ba613cb1565b5b600182019050919050565b60006144d1826135dd565b91506144dc836135dd565b9250826144ec576144eb613d3a565b5b82820690509291505056fea2646970667358221220cc69f6473c81a04cb6f826d5d046a3c60440e12dba35109596470a7702eaa3cd64736f6c63430008090033",
  "immutableReferences": {},
  "source": "// SPDX-License-Identifier: MIT\npragma solidity ^0.8.4;\n\nimport \"./ERC721A.sol\";\nimport \"@openzeppelin/contracts/access/Ownable.sol\";\nimport \"@openzeppelin/contracts/utils/cryptography/MerkleProof.sol\";\n\ncontract TurboRunners is ERC721A, Ownable {\n\tuint256 public MAX_MINTS;\n\tuint256 public MAX_MINT_PER_TRANSACTION;\n\tuint256 public MAX_SUPPLY;\n\tuint256 public mintRate;\n\tuint256 public timeDeployed;\n\tuint256 public allowPublicMintingAfter = 0;\n\tuint256 public allowWhiteListMintingAfter = 0;\n\tbytes32 public root;\n\tuint256 public revealDate = 0;\n\tbool public isPaused = false;\n\tstring public notRevealedURI;\n\tstring public baseURI;\n\taddress public artist;\n\tuint256 royaltyFee = 5;\n\n\tconstructor(\n\t\tuint256 _mintRate,\n\t\tuint256 _maxSupply,\n\t\tuint256 _maxMints,\n\t\tuint256 _maxMintsPerTransaction,\n\t\tuint256 _allowPublicMintingOn,\n\t\tuint256 _allowWhitelistMintingOn,\n\t\tbytes32 _root,\n\t\tuint256 _revealDate,\n\t\tstring memory _initBaseURI,\n\t\tstring memory _initNotRevealedURI,\n\t\taddress _artist\n\t) ERC721A(\"Turbo Runners\", \"TBRNR\") {\n\t\tif (_allowPublicMintingOn > block.timestamp) {\n\t\t\tallowPublicMintingAfter = _allowPublicMintingOn - block.timestamp;\n\t\t}\n\t\tif (_revealDate > block.timestamp) {\n\t\t\trevealDate = _revealDate - block.timestamp;\n\t\t}\n\t\tif (_allowWhitelistMintingOn > block.timestamp) {\n\t\t\tallowWhiteListMintingAfter =\n\t\t\t\t_allowWhitelistMintingOn -\n\t\t\t\tblock.timestamp;\n\t\t}\n\t\tmintRate = _mintRate;\n\t\tMAX_SUPPLY = _maxSupply;\n\t\tMAX_MINTS = _maxMints;\n\t\tMAX_MINT_PER_TRANSACTION = _maxMintsPerTransaction;\n\t\tbaseURI = _initBaseURI;\n\t\tnotRevealedURI = _initNotRevealedURI;\n\t\troot = _root;\n\t\tartist = _artist;\n\t\ttimeDeployed = block.timestamp;\n\t}\n\n\tfunction mint(bytes32[] memory _proof, uint256 quantity) external payable {\n\t\trequire(\n\t\t\tblock.timestamp >= allowWhiteListMintingAfter + timeDeployed,\n\t\t\t\"Minting not allowed yet\"\n\t\t);\n\t\tif (block.timestamp < allowPublicMintingAfter + timeDeployed) {\n\t\t\trequire(\n\t\t\t\tisValid(_proof, keccak256(abi.encodePacked(msg.sender))),\n\t\t\t\t\"Address not on Whitelist\"\n\t\t\t);\n\t\t}\n\t\trequire(!isPaused, \"Minting is currently paused\");\n\t\trequire(\n\t\t\tquantity + _numberMinted(msg.sender) <= MAX_MINTS,\n\t\t\t\"Exceeded the max limit per address\"\n\t\t);\n\t\trequire(\n\t\t\ttotalSupply() + quantity <= MAX_SUPPLY,\n\t\t\t\"Not enough tokens left\"\n\t\t);\n\t\trequire(msg.value >= (mintRate * quantity), \"Not enough ether sent\");\n\t\trequire(\n\t\t\tquantity <= MAX_MINT_PER_TRANSACTION,\n\t\t\t\"Max mint per transaction exceeded\"\n\t\t);\n\t\t//Pay royalties to artist, send remainder to owner\n\t\tif (msg.value > 0) {\n\t\t\tuint256 royalty = (msg.value * royaltyFee) / 100;\n\t\t\t_payRoyalty(royalty);\n\n\t\t\t(bool success2, ) = payable(owner()).call{\n\t\t\t\tvalue: msg.value - royalty\n\t\t\t}(\"\");\n\t\t\trequire(success2);\n\t\t}\n\t\t_safeMint(msg.sender, quantity);\n\t}\n\n\tfunction withdraw() external payable onlyOwner {\n\t\tpayable(owner()).transfer(address(this).balance);\n\t}\n\n\tfunction _baseURI() internal view override returns (string memory) {\n\t\treturn baseURI;\n\t}\n\n\tfunction setMintRate(uint256 _mintRate) public onlyOwner {\n\t\tmintRate = _mintRate;\n\t}\n\n\tfunction setIsPaused(bool _isPaused) public onlyOwner {\n\t\tisPaused = _isPaused;\n\t}\n\n\tfunction transferFrom(\n\t\taddress from,\n\t\taddress to,\n\t\tuint256 tokenId\n\t) public payable override {\n\t\tif (msg.value > 0) {\n\t\t\tuint256 royalty = (msg.value * royaltyFee) / 100;\n\t\t\t_payRoyalty(royalty);\n\n\t\t\t(bool success2, ) = payable(from).call{\n\t\t\t\tvalue: msg.value - royalty\n\t\t\t}(\"\");\n\t\t\trequire(success2);\n\t\t}\n\t\tsuper.transferFrom(from, to, tokenId);\n\t}\n\n\tfunction safeTransferFrom(\n\t\taddress from,\n\t\taddress to,\n\t\tuint256 tokenId\n\t) public payable override {\n\t\tif (msg.value > 0) {\n\t\t\tuint256 royalty = (msg.value * royaltyFee) / 100;\n\t\t\t_payRoyalty(royalty);\n\n\t\t\t(bool success2, ) = payable(from).call{\n\t\t\t\tvalue: msg.value - royalty\n\t\t\t}(\"\");\n\t\t\trequire(success2);\n\t\t}\n\t\tsuper.safeTransferFrom(from, to, tokenId, \"\");\n\t}\n\n\tfunction safeTransferFrom(\n\t\taddress from,\n\t\taddress to,\n\t\tuint256 tokenId,\n\t\tbytes memory _data\n\t) public payable override {\n\t\tif (msg.value > 0) {\n\t\t\tuint256 royalty = (msg.value * royaltyFee) / 100;\n\t\t\t_payRoyalty(royalty);\n\n\t\t\t(bool success2, ) = payable(from).call{\n\t\t\t\tvalue: msg.value - royalty\n\t\t\t}(\"\");\n\t\t\trequire(success2);\n\t\t}\n\t\tsuper.safeTransferFrom(from, to, tokenId, _data);\n\t}\n\n\tfunction _payRoyalty(uint256 _royaltyFee) internal {\n\t\t(bool success1, ) = payable(artist).call{ value: _royaltyFee }(\"\");\n\t\trequire(success1);\n\t}\n\n\tfunction tokenURI(uint256 tokenId)\n\t\tpublic\n\t\tview\n\t\toverride\n\t\treturns (string memory)\n\t{\n\t\tif (block.timestamp < revealDate + timeDeployed) {\n\t\t\treturn notRevealedURI;\n\t\t}\n\n\t\treturn super.tokenURI(tokenId);\n\t}\n\n\tfunction isValid(bytes32[] memory proof, bytes32 leaf)\n\t\tpublic\n\t\tview\n\t\treturns (bool)\n\t{\n\t\treturn MerkleProof.verify(proof, root, leaf);\n\t}\n\n\tfunction setRoot(bytes32 _root) public onlyOwner {\n\t\troot = _root;\n\t}\n}\n",
  "sourcePath": "/Users/jacobvanschenck/Documents/Dev/Blockchain/freelance-projects/nft-mint-page-next/contracts/TurboRunners.sol",
  "compiler": {
    "name": "solc",
    "version": "0.8.9+commit.e5eed63a.Emscripten.clang"
  },
  "schemaVersion": "3.4.4",
  "updatedAt": "2022-05-25T13:00:28.506Z",
  "networkType": "ethereum",
  "devdoc": {
    "kind": "dev",
    "methods": {
      "approve(address,uint256)": {
        "details": "See {IERC721-approve}."
      },
      "balanceOf(address)": {
        "details": "See {IERC721-balanceOf}."
      },
      "getApproved(uint256)": {
        "details": "See {IERC721-getApproved}."
      },
      "isApprovedForAll(address,address)": {
        "details": "See {IERC721-isApprovedForAll}."
      },
      "name()": {
        "details": "See {IERC721Metadata-name}."
      },
      "owner()": {
        "details": "Returns the address of the current owner."
      },
      "ownerOf(uint256)": {
        "details": "See {IERC721-ownerOf}."
      },
      "renounceOwnership()": {
        "details": "Leaves the contract without owner. It will not be possible to call `onlyOwner` functions anymore. Can only be called by the current owner. NOTE: Renouncing ownership will leave the contract without an owner, thereby removing any functionality that is only available to the owner."
      },
      "safeTransferFrom(address,address,uint256)": {
        "details": "See {IERC721-safeTransferFrom}."
      },
      "safeTransferFrom(address,address,uint256,bytes)": {
        "details": "See {IERC721-safeTransferFrom}."
      },
      "setApprovalForAll(address,bool)": {
        "details": "See {IERC721-setApprovalForAll}."
      },
      "supportsInterface(bytes4)": {
        "details": "See {IERC165-supportsInterface}."
      },
      "symbol()": {
        "details": "See {IERC721Metadata-symbol}."
      },
      "tokenByIndex(uint256)": {
        "details": "See {IERC721Enumerable-tokenByIndex}. This read function is O(totalSupply). If calling from a separate contract, be sure to test gas first. It may also degrade with extremely large collection sizes (e.g >> 10000), test for your use case."
      },
      "tokenOfOwnerByIndex(address,uint256)": {
        "details": "See {IERC721Enumerable-tokenOfOwnerByIndex}. This read function is O(totalSupply). If calling from a separate contract, be sure to test gas first. It may also degrade with extremely large collection sizes (e.g >> 10000), test for your use case."
      },
      "tokenURI(uint256)": {
        "details": "See {IERC721Metadata-tokenURI}."
      },
      "totalSupply()": {
        "details": "See {IERC721Enumerable-totalSupply}."
      },
      "transferFrom(address,address,uint256)": {
        "details": "See {IERC721-transferFrom}."
      },
      "transferOwnership(address)": {
        "details": "Transfers ownership of the contract to a new account (`newOwner`). Can only be called by the current owner."
      }
    },
    "version": 1
  },
  "userdoc": {
    "kind": "user",
    "methods": {},
    "version": 1
  }
}